{
  "contractName": "water_payment",
  "abi": [
    {
      "inputs": [],
      "payable": false,
      "stateMutability": "nonpayable",
      "type": "constructor"
    },
    {
      "anonymous": false,
      "inputs": [
        {
          "indexed": false,
          "name": "_transferTo",
          "type": "address"
        },
        {
          "indexed": false,
          "name": "_transferFrom",
          "type": "address"
        },
        {
          "indexed": false,
          "name": "amount",
          "type": "uint256"
        }
      ],
      "name": "TransferFund",
      "type": "event"
    },
    {
      "constant": false,
      "inputs": [
        {
          "name": "_transferTo",
          "type": "address"
        }
      ],
      "name": "transferFund",
      "outputs": [
        {
          "name": "",
          "type": "bool"
        }
      ],
      "payable": true,
      "stateMutability": "payable",
      "type": "function"
    },
    {
      "constant": false,
      "inputs": [],
      "name": "getBalanceOfCurrentAccount",
      "outputs": [
        {
          "name": "",
          "type": "uint256"
        }
      ],
      "payable": true,
      "stateMutability": "payable",
      "type": "function"
    }
  ],
  "bytecode": "0x608060405234801561001057600080fd5b50336000806101000a81548173ffffffffffffffffffffffffffffffffffffffff021916908373ffffffffffffffffffffffffffffffffffffffff1602179055506102bc806100606000396000f30060806040526004361061004c576000357c0100000000000000000000000000000000000000000000000000000000900463ffffffff168063cd4558fd14610051578063eba1877b1461009f575b600080fd5b610085600480360381019080803573ffffffffffffffffffffffffffffffffffffffff1690602001909291905050506100bd565b604051808215151515815260200191505060405180910390f35b6100a7610250565b6040518082815260200191505060405180910390f35b600081600160006101000a81548173ffffffffffffffffffffffffffffffffffffffff021916908373ffffffffffffffffffffffffffffffffffffffff160217905550600160009054906101000a900473ffffffffffffffffffffffffffffffffffffffff1673ffffffffffffffffffffffffffffffffffffffff166108fc349081150290604051600060405180830381858888f19350505050158015610168573d6000803e3d6000fd5b507f41f7a8a1a70f43ecf6769f65a9933ba3370058d8e3422511a890553ba75ff3e8600160009054906101000a900473ffffffffffffffffffffffffffffffffffffffff166000809054906101000a900473ffffffffffffffffffffffffffffffffffffffff1634604051808473ffffffffffffffffffffffffffffffffffffffff1673ffffffffffffffffffffffffffffffffffffffff1681526020018373ffffffffffffffffffffffffffffffffffffffff1673ffffffffffffffffffffffffffffffffffffffff168152602001828152602001935050505060405180910390a1919050565b60008060009054906101000a900473ffffffffffffffffffffffffffffffffffffffff1673ffffffffffffffffffffffffffffffffffffffff16319050905600a165627a7a72305820d037ce29b22b299237b08ab03572bce5807d09b314fef55e3922982ec412038b0029",
  "source": "pragma solidity ^0.4.17;\n\ncontract water_payment {\n    \n    address transferFrom;\n    address transferTo;\n    uint paymentAmount;\n    \n    constructor() public {\n        transferFrom = msg.sender;\n    }\n    \n    event TransferFund(address _transferTo, address _transferFrom, uint amount);\n    function transferFund(address _transferTo) public payable returns (bool){\n        transferTo = _transferTo;\n        transferTo.transfer(msg.value);\n        emit TransferFund(transferTo, transferFrom, msg.value);\n    }\n    \n    function getBalanceOfCurrentAccount() public payable returns (uint) {\n        return transferFrom.balance;\n    }\n}",
  "sourcePath": "/Users/developer/Desktop/projects/databank/ethereum/water_token/contracts/contracts/water_payment.sol",
  "compiler": {
    "name": "solc",
    "version": "0.4.24+commit.e67f0147.Emscripten.clang"
  },
  "schemaVersion": "2.0.1",
  "updatedAt": "2018-10-08T21:38:58.016Z"
}